{
  "contractName": "HorsEther",
  "abi": [
    {
      "constant": false,
      "inputs": [
        {
          "name": "_horseNumbers",
          "type": "uint256[]"
        },
        {
          "name": "_raceTime",
          "type": "uint256"
        },
        {
          "name": "_password",
          "type": "string"
        }
      ],
      "name": "createRace",
      "outputs": [],
      "payable": false,
      "stateMutability": "nonpayable",
      "type": "function",
      "signature": "0x063e6cfa"
    },
    {
      "constant": true,
      "inputs": [
        {
          "name": "_raceIndex",
          "type": "uint256"
        }
      ],
      "name": "getNumberOfBetsOnRace",
      "outputs": [
        {
          "name": "",
          "type": "uint256"
        }
      ],
      "payable": false,
      "stateMutability": "view",
      "type": "function",
      "signature": "0x7c736bd1"
    },
    {
      "constant": true,
      "inputs": [
        {
          "name": "_raceIndex",
          "type": "uint256"
        }
      ],
      "name": "getNumberOfHorsesInRace",
      "outputs": [
        {
          "name": "",
          "type": "uint256"
        }
      ],
      "payable": false,
      "stateMutability": "view",
      "type": "function",
      "signature": "0x9d11f47e"
    },
    {
      "constant": true,
      "inputs": [],
      "name": "getNumberOfRaces",
      "outputs": [
        {
          "name": "",
          "type": "uint256"
        }
      ],
      "payable": false,
      "stateMutability": "view",
      "type": "function",
      "signature": "0x5cce1a1b"
    },
    {
      "constant": true,
      "inputs": [
        {
          "name": "raceIndex",
          "type": "uint256"
        }
      ],
      "name": "getRace",
      "outputs": [
        {
          "name": "",
          "type": "uint256[]"
        },
        {
          "name": "",
          "type": "bool"
        },
        {
          "name": "",
          "type": "uint256"
        },
        {
          "name": "",
          "type": "uint256"
        },
        {
          "name": "",
          "type": "int256"
        }
      ],
      "payable": false,
      "stateMutability": "view",
      "type": "function",
      "signature": "0x0d71aba5"
    },
    {
      "constant": false,
      "inputs": [
        {
          "name": "_raceIndex",
          "type": "uint256"
        },
        {
          "name": "_horseIndex",
          "type": "uint256"
        },
        {
          "name": "_amount",
          "type": "uint256"
        }
      ],
      "name": "createBet",
      "outputs": [],
      "payable": true,
      "stateMutability": "payable",
      "type": "function",
      "signature": "0x9062ce7d"
    },
    {
      "constant": false,
      "inputs": [
        {
          "name": "_raceIndex",
          "type": "uint256"
        },
        {
          "name": "_password",
          "type": "string"
        }
      ],
      "name": "evaluateRace",
      "outputs": [],
      "payable": true,
      "stateMutability": "payable",
      "type": "function",
      "signature": "0x475d5dfa"
    }
  ],
  "bytecode": "0x608060405260006002557fc8d1bf7f2c23c61179850dae51b6ec884c2215578d89634882b1d4cb66984c4760010260035534801561003c57600080fd5b506113f38061004c6000396000f3fe608060405260043610610083576000357c0100000000000000000000000000000000000000000000000000000000900463ffffffff168063063e6cfa146100885780630d71aba5146101ee578063475d5dfa1461029e5780635cce1a1b146103635780637c736bd11461038e5780639062ce7d146103dd5780639d11f47e1461041f575b600080fd5b34801561009457600080fd5b506101ec600480360360608110156100ab57600080fd5b81019080803590602001906401000000008111156100c857600080fd5b8201836020820111156100da57600080fd5b803590602001918460208302840111640100000000831117156100fc57600080fd5b919080806020026020016040519081016040528093929190818152602001838360200280828437600081840152601f19601f820116905080830192505050505050509192919290803590602001909291908035906020019064010000000081111561016657600080fd5b82018360208201111561017857600080fd5b8035906020019184600183028401116401000000008311171561019a57600080fd5b91908080601f016020809104026020016040519081016040528093929190818152602001838380828437600081840152601f19601f82011690508083019250505050505050919291929050505061046e565b005b3480156101fa57600080fd5b506102276004803603602081101561021157600080fd5b8101908080359060200190929190505050610700565b604051808060200186151515158152602001858152602001848152602001838152602001828103825287818151815260200191508051906020019060200280838360005b8381101561028657808201518184015260208101905061026b565b50505050905001965050505050505060405180910390f35b610361600480360360408110156102b457600080fd5b8101908080359060200190929190803590602001906401000000008111156102db57600080fd5b8201836020820111156102ed57600080fd5b8035906020019184600183028401116401000000008311171561030f57600080fd5b91908080601f016020809104026020016040519081016040528093929190818152602001838380828437600081840152601f19601f820116905080830192505050505050509192919290505050610806565b005b34801561036f57600080fd5b50610378610efb565b6040518082815260200191505060405180910390f35b34801561039a57600080fd5b506103c7600480360360208110156103b157600080fd5b8101908080359060200190929190505050610f08565b6040518082815260200191505060405180910390f35b61041d600480360360608110156103f357600080fd5b81019080803590602001909291908035906020019092919080359060200190929190505050610f35565b005b34801561042b57600080fd5b506104586004803603602081101561044257600080fd5b81019080803590602001909291905050506112e7565b6040518082815260200191505060405180910390f35b600354816040516020018080602001828103825283818151815260200191508051906020019080838360005b838110156104b557808201518184015260208101905061049a565b50505050905090810190601f1680156104e25780820380516001836020036101000a031916815260200191505b509250505060405160208183030381529060405280519060200120141515610572576040517f08c379a000000000000000000000000000000000000000000000000000000000815260040180806020018281038252601b8152602001807f61646d696e2070617373776f726420697320696e636f7272656374000000000081525060200191505060405180910390fd5b428211151561060f576040517f08c379a00000000000000000000000000000000000000000000000000000000081526004018080602001828103825260228152602001807f52616365206d7573742074616b6520706c61636520696e20746865206675747581526020017f726500000000000000000000000000000000000000000000000000000000000081525060400191505060405180910390fd5b6060600160a0604051908101604052808681526020016000151581526020018581526020018381526020017fffffffffffffffffffffffffffffffffffffffffffffffffffffffffffffffff8152509080600181540180825580915050906001820390600052602060002090600502016000909192909190915060008201518160000190805190602001906106a5929190611314565b5060208201518160010160006101000a81548160ff0219169083151502179055506040820151816002015560608201518160030190805190602001906106ec929190611314565b506080820151816004015550505050505050565b606060008060008060018681548110151561071757fe5b906000526020600020906005020160000160018781548110151561073757fe5b906000526020600020906005020160010160009054906101000a900460ff1660018881548110151561076557fe5b90600052602060002090600502016002015461078089610f08565b60018a81548110151561078f57fe5b906000526020600020906005020160040154848054806020026020016040519081016040528092919081815260200182805480156107ec57602002820191906000526020600020905b8154815260200190600101908083116107d8575b505050505094509450945094509450945091939590929450565b600354816040516020018080602001828103825283818151815260200191508051906020019080838360005b8381101561084d578082015181840152602081019050610832565b50505050905090810190601f16801561087a5780820380516001836020036101000a031916815260200191505b50925050506040516020818303038152906040528051906020012014151561090a576040517f08c379a000000000000000000000000000000000000000000000000000000000815260040180806020018281038252601b8152602001807f61646d696e2070617373776f726420697320696e636f7272656374000000000081525060200191505060405180910390fd5b4260018381548110151561091a57fe5b9060005260206000209060050201600201541015156109a1576040517f08c379a00000000000000000000000000000000000000000000000000000000081526004018080602001828103825260108152602001807f52616365206e6f74207965742072756e0000000000000000000000000000000081525060200191505060405180910390fd5b600015156001838154811015156109b457fe5b906000526020600020906005020160010160009054906101000a900460ff161515141515610a4a576040517f08c379a00000000000000000000000000000000000000000000000000000000081526004018080602001828103825260168152602001807f5261636520616c7265616479206576616c75617465640000000000000000000081525060200191505060405180910390fd5b60018054905082101515610ac6576040517f08c379a00000000000000000000000000000000000000000000000000000000081526004018080602001828103825260138152602001807f5261636520646f6573206e6f742065786973740000000000000000000000000081525060200191505060405180910390fd5b6000600a600143034060019004811515610adc57fe5b06905060006103e890506001821480610af55750600082145b15610b035760009050610b77565b6002821480610b125750600382145b15610b205760019050610b76565b6004821480610b2f5750600582145b15610b3d5760029050610b75565b6006821480610b4c5750600782145b15610b5a5760039050610b74565b6008821480610b695750600982145b15610b7357600490505b5b5b5b5b6103e88114158015610b8a575060008112155b1515610bfe576040517f08c379a00000000000000000000000000000000000000000000000000000000081526004018080602001828103825260158152602001807f72616e646f6d2077696e6e6572206572726f726564000000000000000000000081525060200191505060405180910390fd5b6000600185815481101515610c0f57fe5b9060005260206000209060050201600301805490501115610e985760008090505b600185815481101515610c3f57fe5b906000526020600020906005020160030180549050811015610e9657610c63611361565b600080600188815481101515610c7557fe5b906000526020600020906005020160030184815481101515610c9357fe5b90600052602060002001548152602001908152602001600020608060405190810160405290816000820160009054906101000a900473ffffffffffffffffffffffffffffffffffffffff1673ffffffffffffffffffffffffffffffffffffffff1673ffffffffffffffffffffffffffffffffffffffff1681526020016000820160149054906101000a900460ff161515151581526020016001820154815260200160028201548152505090508281604001511415610e88576000600187815481101515610d5c57fe5b9060005260206000209060050201600001805490508260600151029050803073ffffffffffffffffffffffffffffffffffffffff1631111515610e2d576040517f08c379a00000000000000000000000000000000000000000000000000000000081526004018080602001828103825260218152602001807f4e6f7420656e6f7567682066756e647320746f2072657761726420626574746f81526020017f720000000000000000000000000000000000000000000000000000000000000081525060400191505060405180910390fd5b816000015173ffffffffffffffffffffffffffffffffffffffff166108fc600583811515610e5757fe5b0483039081150290604051600060405180830381858888f19350505050158015610e85573d6000803e3d6000fd5b50505b508080600101915050610c30565b505b60018085815481101515610ea857fe5b906000526020600020906005020160010160006101000a81548160ff02191690831515021790555080600185815481101515610ee057fe5b90600052602060002090600502016004018190555050505050565b6000600180549050905090565b6000600182815481101515610f1957fe5b9060005260206000209060050201600301805490509050919050565b803410151515610fd3576040517f08c379a00000000000000000000000000000000000000000000000000000000081526004018080602001828103825260318152602001807f42657420616d6f756e74206d75737420626520657175616c206f72206c65737381526020017f207468616e2073656e7420616d6f756e7400000000000000000000000000000081525060400191505060405180910390fd5b6001805490508310151561104f576040517f08c379a00000000000000000000000000000000000000000000000000000000081526004018080602001828103825260138152602001807f5261636520646f6573206e6f742065786973740000000000000000000000000081525060200191505060405180910390fd5b4260018481548110151561105f57fe5b9060005260206000209060050201600201541115156110e6576040517f08c379a00000000000000000000000000000000000000000000000000000000081526004018080602001828103825260148152602001807f526163652068617320616c72656164792072756e00000000000000000000000081525060200191505060405180910390fd5b60008210158015611119575060018381548110151561110157fe5b90600052602060002090600502016000018054905082105b15156111b3576040517f08c379a00000000000000000000000000000000000000000000000000000000081526004018080602001828103825260288152602001807f486f727365206e756d62657220646f6573206e6f7420657869737420696e207481526020017f686973207261636500000000000000000000000000000000000000000000000081525060400191505060405180910390fd5b600260008154809291906001019190505550600060025490506080604051908101604052803373ffffffffffffffffffffffffffffffffffffffff1681526020016000151581526020018481526020018381525060008083815260200190815260200160002060008201518160000160006101000a81548173ffffffffffffffffffffffffffffffffffffffff021916908373ffffffffffffffffffffffffffffffffffffffff16021790555060208201518160000160146101000a81548160ff02191690831515021790555060408201518160010155606082015181600201559050506001848154811015156112a657fe5b906000526020600020906005020160030181908060018154018082558091505090600182039060005260206000200160009091929091909150555050505050565b60006001828154811015156112f857fe5b9060005260206000209060050201600001805490509050919050565b828054828255906000526020600020908101928215611350579160200282015b8281111561134f578251825591602001919060010190611334565b5b50905061135d91906113a2565b5090565b608060405190810160405280600073ffffffffffffffffffffffffffffffffffffffff16815260200160001515815260200160008152602001600081525090565b6113c491905b808211156113c05760008160009055506001016113a8565b5090565b9056fea165627a7a723058209f9ee6f6b35c3ee6cf9aa6f89095c0fd5b3fc665b783aa4c8669dd1c0fe457d30029",
  "source": "pragma solidity ^0.5.0;\n\ncontract HorsEther {\n\n    struct Race {\n        uint[] horses; // currently only running 5 horse races\n        bool paidOut; // after a race is paidOut it can be considered done\n        uint expireTime; //unix timestamp\n        uint[] bets;\n        int winner; // -1 until a winner is determined\n    }\n\n    struct Bet {\n        address payable bettorAddr;//bettor address\n        bool rewarded; // if true, person already has been rewarded\n        uint horseNum; //horse on which better is betting\n        uint betAmount; //amount they bet\n    }\n\n    // lookup betIds from the uint[] of bets in Race structs\n    mapping(uint => Bet) private betIdToBet;\n\n    Race[] private races;\n\n    uint betsInSystem = 0;\n\n    //bytes32 public adminPassHash = keccak256(abi.encode(\"\")); //useful for manually generating passwords\n    bytes32 private adminPassHash = 0xc8d1bf7f2c23c61179850dae51b6ec884c2215578d89634882b1d4cb66984c47;\n\n    function createRace(uint[] memory _horseNumbers, uint _raceTime, string memory _password) public {\n        require(keccak256(abi.encode(_password)) == adminPassHash, \"admin password is incorrect\");\n        require(_raceTime > now, \"Race must take place in the future\");\n\n        uint[] memory bets;\n        races.push(Race(_horseNumbers, false, _raceTime, bets, -1));\n    }\n\n    function getNumberOfBetsOnRace(uint _raceIndex) public view returns(uint) {\n        return races[_raceIndex].bets.length;\n    }\n\n    function getNumberOfHorsesInRace(uint _raceIndex) public view returns(uint) {\n        return races[_raceIndex].horses.length;\n    }\n\n    function getNumberOfRaces() public view returns(uint) {\n        return races.length;\n    }\n\n    function getRace(uint raceIndex) public view returns(uint[] memory, bool, uint, uint, int) {\n        return (races[raceIndex].horses, races[raceIndex].paidOut, races[raceIndex].expireTime,\n        getNumberOfBetsOnRace(raceIndex), races[raceIndex].winner);\n    }\n\n    function createBet(uint _raceIndex, uint _horseIndex, uint _amount) public payable{\n        require(msg.value >= _amount,\n            \"Bet amount must be equal or less than sent amount\");\n        require(_raceIndex < races.length, \"Race does not exist\");\n        require(races[_raceIndex].expireTime > now, \"Race has already run\");\n        require((_horseIndex >= 0 && _horseIndex < races[_raceIndex].horses.length),\n            \"Horse number does not exist in this race\");\n\n        betsInSystem++;\n        uint newBetId = (betsInSystem);\n        betIdToBet[newBetId] = Bet(msg.sender, false, _horseIndex, _amount);\n        races[_raceIndex].bets.push(newBetId);\n    }\n\n    // Randomly generates a race winner, pays betters, and marks the race completed\n    function evaluateRace(uint _raceIndex, string memory _password) public payable {\n        require(keccak256(abi.encode(_password)) == adminPassHash, \"admin password is incorrect\");\n        require(races[_raceIndex].expireTime < now, \"Race not yet run\");\n        require(races[_raceIndex].paidOut == false, \"Race already evaluated\");\n        require(_raceIndex < races.length, \"Race does not exist\");\n\n        uint random_number = uint(blockhash(block.number-1))%10;\n        int winner = 1000;\n        if(random_number == 1 || random_number == 0) {\n            winner = 0;\n        } else if(random_number == 2 || random_number == 3) {\n            winner = 1;\n        } else if(random_number == 4 || random_number == 5) {\n            winner = 2;\n        } else if(random_number == 6 || random_number == 7) {\n            winner = 3;\n        } else if(random_number == 8 || random_number == 9) {\n            winner = 4;\n        }\n        require(winner != 1000 && winner >= 0, \"random winner errored\");\n\n        if(races[_raceIndex].bets.length > 0) {\n            for(uint i = 0; i < races[_raceIndex].bets.length; i++){\n                Bet memory tempBet = betIdToBet[races[_raceIndex].bets[i]];\n                if(tempBet.horseNum == uint(winner)) {\n                    uint winAmount = tempBet.betAmount*races[_raceIndex].horses.length;\n                    require(address(this).balance > winAmount, \"Not enough funds to reward bettor\");\n                    tempBet.bettorAddr.transfer(winAmount- uint(winAmount/5));\n                }\n            }\n        }\n\n        races[_raceIndex].paidOut = true;\n        races[_raceIndex].winner = winner;\n    }\n}\n",
  "sourcePath": "/home/kevin/IdeaProjects/CSC4980_horse_racing_dapp/contracts/HorsEther.sol",
  "compiler": {
    "name": "solc",
    "version": "0.5.0+commit.1d4f565a.Emscripten.clang"
  },
  "schemaVersion": "3.0.6",
  "updatedAt": "2019-04-17T07:26:34.516Z",
  "devdoc": {
    "methods": {}
  },
  "userdoc": {
    "methods": {}
  }
}