{
  "contractName": "HorsEther",
  "abi": [
    {
      "constant": true,
      "inputs": [
        {
          "name": "",
          "type": "uint256"
        }
      ],
      "name": "races",
      "outputs": [
        {
          "name": "raceId",
          "type": "uint256"
        }
      ],
      "payable": false,
      "stateMutability": "view",
      "type": "function"
    },
    {
      "constant": false,
      "inputs": [],
      "name": "createRace",
      "outputs": [],
      "payable": false,
      "stateMutability": "nonpayable",
      "type": "function"
    },
    {
      "constant": false,
      "inputs": [
        {
          "name": "_horseNumber",
          "type": "uint256"
        },
        {
          "name": "_raceId",
          "type": "uint256"
        },
        {
          "name": "_amount",
          "type": "uint256"
        }
      ],
      "name": "createBet",
      "outputs": [],
      "payable": true,
      "stateMutability": "payable",
      "type": "function"
    },
    {
      "constant": false,
      "inputs": [
        {
          "name": "_raceIndex",
          "type": "uint256"
        },
        {
          "name": "_winningHorseIndex",
          "type": "uint256"
        }
      ],
      "name": "forceEvaluateRaceWithSpecificWinner",
      "outputs": [],
      "payable": true,
      "stateMutability": "payable",
      "type": "function"
    }
  ],
  "bytecode": "0x608060405260a0604051908101604052806040805190810160405280600681526020017f686f72736531000000000000000000000000000000000000000000000000000081525081526020016040805190810160405280600681526020017f686f72736532000000000000000000000000000000000000000000000000000081525081526020016040805190810160405280600681526020017f686f72736533000000000000000000000000000000000000000000000000000081525081526020016040805190810160405280600681526020017f686f72736534000000000000000000000000000000000000000000000000000081525081526020016040805190810160405280600681526020017f686f7273653500000000000000000000000000000000000000000000000000008152508152506001906005610145929190610158565b5034801561015257600080fd5b506102d1565b8280548282559060005260206000209081019282156101a7579160200282015b828111156101a65782518290805190602001906101969291906101b8565b5091602001919060010190610178565b5b5090506101b49190610238565b5090565b828054600181600116156101000203166002900490600052602060002090601f016020900481019282601f106101f957805160ff1916838001178555610227565b82800160010185558215610227579182015b8281111561022657825182559160200191906001019061020b565b5b5090506102349190610264565b5090565b61026191905b8082111561025d57600081816102549190610289565b5060010161023e565b5090565b90565b61028691905b8082111561028257600081600090555060010161026a565b5090565b90565b50805460018160011615610100020316600290046000825580601f106102af57506102ce565b601f0160209004906000526020600020908101906102cd9190610264565b5b50565b610676806102e06000396000f3fe608060405260043610610062576000357c0100000000000000000000000000000000000000000000000000000000900463ffffffff1680636688949c1461006757806375a0caea1461007e5780637bbc469e146100b65780639062ce7d14610105575b600080fd5b34801561007357600080fd5b5061007c610147565b005b6100b46004803603604081101561009457600080fd5b8101908080359060200190929190803590602001909291905050506102af565b005b3480156100c257600080fd5b506100ef600480360360208110156100d957600080fd5b8101908080359060200190929190505050610432565b6040518082815260200191505060405180910390f35b6101456004803603606081101561011b57600080fd5b81019080803590602001909291908035906020019092919080359060200190929190505050610450565b005b60008060008154809291906001019190505590506000600190505b60068110156102ab5760026000838152602001908152602001600020600101604080519081016040528083815260200160018085038154811015156101a357fe5b906000526020600020018054600181600116156101000203166002900480601f0160208091040260200160405190810160405280929190818152602001828054600181600116156101000203166002900480156102415780601f1061021657610100808354040283529160200191610241565b820191906000526020600020905b81548152906001019060200180831161022457829003601f168201915b50505050508152509080600181540180825580915050906001820390600052602060002090600202016000909192909190915060008201518160000155602082015181600101908051906020019061029a929190610564565b505050508080600101915050610162565b5050565b60008090505b600260008481526020019081526020016000206002018054905081101561042d576102de6105e4565b600260008581526020019081526020016000206002018281548110151561030157fe5b9060005260206000209060030201608060405190810160405290816000820160009054906101000a900473ffffffffffffffffffffffffffffffffffffffff1673ffffffffffffffffffffffffffffffffffffffff1673ffffffffffffffffffffffffffffffffffffffff1681526020016000820160149054906101000a900460ff16151515158152602001600182015481526020016002820154815250509050828160400151141561041f576000816000015190508073ffffffffffffffffffffffffffffffffffffffff166108fc60026000888152602001908152602001600020600101805490508460600151029081150290604051600060405180830381858888f1935050505015801561041c573d6000803e3d6000fd5b50505b5080806001019150506102b5565b505050565b60026020528060005260406000206000915090508060000154905081565b80341015151561045f57600080fd5b6000600260008481526020019081526020016000209050806002016080604051908101604052803373ffffffffffffffffffffffffffffffffffffffff168152602001600015158152602001868152602001848152509080600181540180825580915050906001820390600052602060002090600302016000909192909190915060008201518160000160006101000a81548173ffffffffffffffffffffffffffffffffffffffff021916908373ffffffffffffffffffffffffffffffffffffffff16021790555060208201518160000160146101000a81548160ff021916908315150217905550604082015181600101556060820151816002015550505050505050565b828054600181600116156101000203166002900490600052602060002090601f016020900481019282601f106105a557805160ff19168380011785556105d3565b828001600101855582156105d3579182015b828111156105d25782518255916020019190600101906105b7565b5b5090506105e09190610625565b5090565b608060405190810160405280600073ffffffffffffffffffffffffffffffffffffffff16815260200160001515815260200160008152602001600081525090565b61064791905b8082111561064357600081600090555060010161062b565b5090565b9056fea165627a7a7230582033ee04cad33acee28dbd5328bbda77c64b1b93dfea1baa34155ca5b7b6d726610029",
  "source": "pragma solidity ^0.5.0;\n\ncontract HorsEther {\n\n    struct Horse{\n        uint horseNumber;\n        string horseName;\n    }\n\n    struct Race {\n        uint raceId;\n        Horse[] horses;\n        Bet[] bets;\n    }\n\n    struct Bet {\n        address payable bettorAddr;//bettor address\n        bool rewarded; // if true, person already has been rewarded\n        uint horseNum; //horse on which better is betting\n        uint betAmount; //amount they bet\n    }\n    //get list of races, check evaluated? expires\n    //valid races\n    uint numOfRaces;\n    string[] horseNames = [\"horse1\",\"horse2\",\"horse3\",\"horse4\",\"horse5\"];\n\n    //bet amount on horse\n    mapping(uint => Race) public races; //race array\n\n    function createRace() public {\n        uint raceId;\n        raceId= numOfRaces++;\n        for(uint i=1 ; i<6; i++){\n            races[raceId].horses.push(Horse(i, horseNames[i-1]));\n        }\n    }\n\n    //check if the bettor exist in the race already\n    //get the race based in raceId\n    //add bettor to the race and add horsesInfo to the race\n    //add amount\n    function createBet(uint _horseNumber, uint _raceId, uint _amount) public payable{\n        require(msg.value >= _amount);\n        Race storage r= races[_raceId];\n        r.bets.push(Bet(msg.sender, false, _horseNumber, _amount));\n    }\n\n    function forceEvaluateRaceWithSpecificWinner(uint _raceIndex, uint _winningHorseIndex) public payable {\n        for(uint i = 0; i < races[_raceIndex].bets.length; i++){\n            Bet memory tempBet = races[_raceIndex].bets[i];\n            if(tempBet.horseNum == _winningHorseIndex) {\n                address payable tempAddress = tempBet.bettorAddr;\n                //tempAddress.send(tempBet.betAmount*races[_raceIndex].horses.length);\n                tempAddress.transfer(tempBet.betAmount*races[_raceIndex].horses.length);\n            }\n        }\n\n    }\n\n}\n",
  "sourcePath": "/home/kevin/IdeaProjects/CSC4980_horse_racing_dapp/contracts/HorsEther.sol",
  "compiler": {
    "name": "solc",
    "version": "0.5.0+commit.1d4f565a.Emscripten.clang"
  },
  "schemaVersion": "3.0.6",
  "updatedAt": "2019-04-16T00:57:09.693Z",
  "devdoc": {
    "methods": {}
  },
  "userdoc": {
    "methods": {}
  }
}