{
  "contractName": "HorsEther",
  "abi": [
    {
      "constant": true,
      "inputs": [
        {
          "name": "",
          "type": "uint256"
        }
      ],
      "name": "races",
      "outputs": [
        {
          "name": "raceId",
          "type": "uint256"
        },
        {
          "name": "paidOut",
          "type": "bool"
        },
        {
          "name": "expireTime",
          "type": "uint256"
        },
        {
          "name": "numOfBets",
          "type": "uint256"
        }
      ],
      "payable": false,
      "stateMutability": "view",
      "type": "function"
    },
    {
      "constant": true,
      "inputs": [
        {
          "name": "",
          "type": "uint256"
        }
      ],
      "name": "horseInfo",
      "outputs": [
        {
          "name": "horseNumber",
          "type": "uint256"
        },
        {
          "name": "horseName",
          "type": "string"
        }
      ],
      "payable": false,
      "stateMutability": "view",
      "type": "function"
    },
    {
      "anonymous": false,
      "inputs": [
        {
          "indexed": false,
          "name": "_horseName",
          "type": "string"
        }
      ],
      "name": "ChooseWinner",
      "type": "event"
    },
    {
      "constant": false,
      "inputs": [],
      "name": "init",
      "outputs": [],
      "payable": false,
      "stateMutability": "nonpayable",
      "type": "function"
    },
    {
      "constant": false,
      "inputs": [],
      "name": "createRace",
      "outputs": [],
      "payable": false,
      "stateMutability": "nonpayable",
      "type": "function"
    },
    {
      "constant": false,
      "inputs": [
        {
          "name": "_raceIndex",
          "type": "uint256"
        },
        {
          "name": "_winningHorseIndex",
          "type": "uint256"
        }
      ],
      "name": "forceEvaluateRaceWithSpecificWinner",
      "outputs": [],
      "payable": true,
      "stateMutability": "payable",
      "type": "function"
    },
    {
      "constant": false,
      "inputs": [
        {
          "name": "_horseNumber",
          "type": "uint256"
        },
        {
          "name": "_raceId",
          "type": "uint256"
        },
        {
          "name": "_amount",
          "type": "uint256"
        }
      ],
      "name": "createBet",
      "outputs": [],
      "payable": true,
      "stateMutability": "payable",
      "type": "function"
    },
    {
      "constant": true,
      "inputs": [
        {
          "name": "bettor",
          "type": "address"
        },
        {
          "name": "raceId",
          "type": "uint256"
        }
      ],
      "name": "checkBettorExists",
      "outputs": [
        {
          "name": "",
          "type": "bool"
        }
      ],
      "payable": false,
      "stateMutability": "view",
      "type": "function"
    },
    {
      "constant": true,
      "inputs": [],
      "name": "getValidRaceIds",
      "outputs": [
        {
          "name": "",
          "type": "uint256[]"
        }
      ],
      "payable": false,
      "stateMutability": "view",
      "type": "function"
    },
    {
      "constant": false,
      "inputs": [
        {
          "name": "raceId",
          "type": "uint256"
        }
      ],
      "name": "chooseWinner",
      "outputs": [
        {
          "name": "",
          "type": "uint256"
        }
      ],
      "payable": false,
      "stateMutability": "nonpayable",
      "type": "function"
    },
    {
      "constant": false,
      "inputs": [
        {
          "name": "winningHorse",
          "type": "uint256"
        },
        {
          "name": "raceId",
          "type": "uint256"
        }
      ],
      "name": "payOutWinners",
      "outputs": [],
      "payable": true,
      "stateMutability": "payable",
      "type": "function"
    }
  ],
  "bytecode": "0x608060405260a0604051908101604052806040805190810160405280600681526020017f686f72736531000000000000000000000000000000000000000000000000000081525081526020016040805190810160405280600681526020017f686f72736532000000000000000000000000000000000000000000000000000081525081526020016040805190810160405280600681526020017f686f72736533000000000000000000000000000000000000000000000000000081525081526020016040805190810160405280600681526020017f686f72736534000000000000000000000000000000000000000000000000000081525081526020016040805190810160405280600681526020017f686f7273653500000000000000000000000000000000000000000000000000008152508152506001906005620001479291906200015c565b503480156200015557600080fd5b50620002ef565b828054828255906000526020600020908101928215620001b0579160200282015b82811115620001af5782518290805190602001906200019e929190620001c3565b50916020019190600101906200017d565b5b509050620001bf91906200024a565b5090565b828054600181600116156101000203166002900490600052602060002090601f016020900481019282601f106200020657805160ff191683800117855562000237565b8280016001018555821562000237579182015b828111156200023657825182559160200191906001019062000219565b5b5090506200024691906200027b565b5090565b6200027891905b808211156200027457600081816200026a9190620002a3565b5060010162000251565b5090565b90565b620002a091905b808211156200029c57600081600090555060010162000282565b5090565b90565b50805460018160011615610100020316600290046000825580601f10620002cb5750620002ec565b601f016020900490600052602060002090810190620002eb91906200027b565b5b50565b6112f780620002ff6000396000f3fe6080604052600436106100a4576000357c0100000000000000000000000000000000000000000000000000000000900463ffffffff168063171b85a0146100a95780636688949c146100e157806375a0caea146100f85780637bbc469e146101305780639062ce7d146101985780639e2f04bf146101da578063a023baf714610229578063b6fbda7314610295578063bb95075814610308578063e1c7392a146103c3575b600080fd5b6100df600480360360408110156100bf57600080fd5b8101908080359060200190929190803590602001909291905050506103da565b005b3480156100ed57600080fd5b506100f661071c565b005b61012e6004803603604081101561010e57600080fd5b8101908080359060200190929190803590602001909291905050506109f3565b005b34801561013c57600080fd5b506101696004803603602081101561015357600080fd5b8101908080359060200190929190505050610b76565b604051808581526020018415151515815260200183815260200182815260200194505050505060405180910390f35b6101d8600480360360608110156101ae57600080fd5b81019080803590602001909291908035906020019092919080359060200190929190505050610bb3565b005b3480156101e657600080fd5b50610213600480360360208110156101fd57600080fd5b8101908080359060200190929190505050610e9d565b6040518082815260200191505060405180910390f35b34801561023557600080fd5b5061023e610f93565b6040518080602001828103825283818151815260200191508051906020019060200280838360005b83811015610281578082015181840152602081019050610266565b505050509050019250505060405180910390f35b3480156102a157600080fd5b506102ee600480360360408110156102b857600080fd5b81019080803573ffffffffffffffffffffffffffffffffffffffff1690602001909291908035906020019092919050505061101e565b604051808215151515815260200191505060405180910390f35b34801561031457600080fd5b506103416004803603602081101561032b57600080fd5b81019080803590602001909291905050506110e6565b6040518083815260200180602001828103825283818151815260200191508051906020019080838360005b8381101561038757808201518184015260208101905061036c565b50505050905090810190601f1680156103b45780820380516001836020036101000a031916815260200191505b50935050505060405180910390f35b3480156103cf57600080fd5b506103d86111a2565b005b6103e26111ac565b6002600083815260200190815260200160002060c060405190810160405290816000820154815260200160018201805480602002602001604051908101604052809291908181526020016000905b8282101561050e578382906000526020600020906002020160408051908101604052908160008201548152602001600182018054600181600116156101000203166002900480601f0160208091040260200160405190810160405280929190818152602001828054600181600116156101000203166002900480156104f65780601f106104cb576101008083540402835291602001916104f6565b820191906000526020600020905b8154815290600101906020018083116104d957829003601f168201915b50505050508152505081526020019060010190610430565b50505050815260200160028201805480602002602001604051908101604052809291908181526020016000905b828210156105f35783829060005260206000209060030201608060405190810160405290816000820160009054906101000a900473ffffffffffffffffffffffffffffffffffffffff1673ffffffffffffffffffffffffffffffffffffffff1673ffffffffffffffffffffffffffffffffffffffff1681526020016000820160149054906101000a900460ff16151515158152602001600182015481526020016002820154815250508152602001906001019061053b565b5050505081526020016003820160009054906101000a900460ff1615151515815260200160048201548152602001600582015481525050905060008090505b8160a00151811015610705576106466111e5565b82604001518281518110151561065857fe5b90602001906020020151905084816040015114156106f7576000600a60018054905083606001510281151561068957fe5b04600180549050836060015102039050816000015173ffffffffffffffffffffffffffffffffffffffff166108fc829081150290604051600060405180830381858888f193505050501580156106e3573d6000803e3d6000fd5b506001826020019015159081151581525050505b508080600101915050610632565b506001816060019015159081151581525050505050565b60008060008154809291906001019190505590506000600190505b600681101561098557600260008381526020019081526020016000206001016040805190810160405280838152602001600180850381548110151561077857fe5b906000526020600020018054600181600116156101000203166002900480601f0160208091040260200160405190810160405280929190818152602001828054600181600116156101000203166002900480156108165780601f106107eb57610100808354040283529160200191610816565b820191906000526020600020905b8154815290600101906020018083116107f957829003601f168201915b50505050508152509080600181540180825580915050906001820390600052602060002090600202016000909192909190915060008201518160000155602082015181600101908051906020019061086f929190611226565b505050506040805190810160405280828152602001600180840381548110151561089557fe5b906000526020600020018054600181600116156101000203166002900480601f0160208091040260200160405190810160405280929190818152602001828054600181600116156101000203166002900480156109335780601f1061090857610100808354040283529160200191610933565b820191906000526020600020905b81548152906001019060200180831161091657829003601f168201915b505050505081525060036000838152602001908152602001600020600082015181600001556020820151816001019080519060200190610974929190611226565b509050508080600101915050610737565b5060006002600083815260200190815260200160002060030160006101000a81548160ff02191690831515021790555061012c420160026000838152602001908152602001600020600401819055506000600260008381526020019081526020016000206005018190555050565b60008090505b6002600084815260200190815260200160002060020180549050811015610b7157610a226111e5565b6002600085815260200190815260200160002060020182815481101515610a4557fe5b9060005260206000209060030201608060405190810160405290816000820160009054906101000a900473ffffffffffffffffffffffffffffffffffffffff1673ffffffffffffffffffffffffffffffffffffffff1673ffffffffffffffffffffffffffffffffffffffff1681526020016000820160149054906101000a900460ff161515151581526020016001820154815260200160028201548152505090508281604001511415610b63576000816000015190508073ffffffffffffffffffffffffffffffffffffffff166108fc60026000888152602001908152602001600020600101805490508460600151029081150290604051600060405180830381858888f19350505050158015610b60573d6000803e3d6000fd5b50505b5080806001019150506109f9565b505050565b60026020528060005260406000206000915090508060000154908060030160009054906101000a900460ff16908060040154908060050154905084565b610bbd338361101e565b151515610c58576040517f08c379a00000000000000000000000000000000000000000000000000000000081526004018080602001828103825260278152602001807f43616e6e6f7420626574206f6e2073616d6520686f727365206d6f726520746881526020017f616e206f6e63650000000000000000000000000000000000000000000000000081525060400191505060405180910390fd5b803410151515610cf6576040517f08c379a00000000000000000000000000000000000000000000000000000000081526004018080602001828103825260318152602001807f42657420616d6f756e74206d75737420626520657175616c206f72206c65737381526020017f207468616e2073656e7420616d6f756e7400000000000000000000000000000081525060400191505060405180910390fd5b6000600260008481526020019081526020016000206004015411151515610d85576040517f08c379a00000000000000000000000000000000000000000000000000000000081526004018080602001828103825260158152602001807f5261636520686173206265656e2065787069726564000000000000000000000081525060200191505060405180910390fd5b6000600260008481526020019081526020016000209050806002016080604051908101604052803373ffffffffffffffffffffffffffffffffffffffff168152602001600015158152602001868152602001848152509080600181540180825580915050906001820390600052602060002090600302016000909192909190915060008201518160000160006101000a81548173ffffffffffffffffffffffffffffffffffffffff021916908373ffffffffffffffffffffffffffffffffffffffff16021790555060208201518160000160146101000a81548160ff02191690831515021790555060408201518160010155606082015181600201555050506001816005016000828254019250508190555050505050565b6000806002600084815260200190815260200160002090506000600390507f6419e87f07c7f07c6babf99571f19aa441896110114eca71a0e296582a1a48f3600360008381526020019081526020016000206001016040518080602001828103825283818154600181600116156101000203166002900481526020019150805460018160011615610100020316600290048015610f7b5780601f10610f5057610100808354040283529160200191610f7b565b820191906000526020600020905b815481529060010190602001808311610f5e57829003601f168201915b50509250505060405180910390a18092505050919050565b6060806000809050600054811015611018576000600260008381526020019081526020016000209050600015158160030160009054906101000a900460ff161515148015610fe657506000816004015411155b1561100d5780600001548383815181101515610ffe57fe5b90602001906020020181815250505b82935050505061101b565b50505b90565b60008060026000848152602001908152602001600020905060008090505b81600201805490508110156110d9578473ffffffffffffffffffffffffffffffffffffffff16826002018281548110151561107357fe5b906000526020600020906003020160000160009054906101000a900473ffffffffffffffffffffffffffffffffffffffff1673ffffffffffffffffffffffffffffffffffffffff1614156110cc576001925050506110e0565b808060010191505061103c565b5060009150505b92915050565b6003602052806000526040600020600091509050806000015490806001018054600181600116156101000203166002900480601f0160208091040260200160405190810160405280929190818152602001828054600181600116156101000203166002900480156111985780601f1061116d57610100808354040283529160200191611198565b820191906000526020600020905b81548152906001019060200180831161117b57829003601f168201915b5050505050905082565b6111aa61071c565b565b60c06040519081016040528060008152602001606081526020016060815260200160001515815260200160008152602001600081525090565b608060405190810160405280600073ffffffffffffffffffffffffffffffffffffffff16815260200160001515815260200160008152602001600081525090565b828054600181600116156101000203166002900490600052602060002090601f016020900481019282601f1061126757805160ff1916838001178555611295565b82800160010185558215611295579182015b82811115611294578251825591602001919060010190611279565b5b5090506112a291906112a6565b5090565b6112c891905b808211156112c45760008160009055506001016112ac565b5090565b9056fea165627a7a72305820e69880d79b2b1d4f042869cce33414801343a7d39efe5b07fb565d7521970e3c0029",
  "source": "pragma solidity ^0.5.0;\n\ncontract HorsEther {\n\n    struct Horse{\n        uint horseNumber;\n        string horseName;\n    }\n\n    struct Race {\n        uint raceId;\n        Horse[] horses;\n        Bet[] bets;\n        bool paidOut;\n        uint expireTime; //minutes\n        uint numOfBets;\n    }\n\n    struct Bet {\n        address payable bettorAddr;//bettor address\n        bool rewarded; // if true, person already has been rewarded\n        uint horseNum; //horse on which better is betting\n        uint betAmount; //amount they bet\n    }\n\n    function init() public{\n        createRace();\n    }\n\n    uint numOfRaces;\n    string[] horseNames = [\"horse1\",\"horse2\",\"horse3\",\"horse4\",\"horse5\"];\n\n    //bet amount on horse\n    mapping(uint => Race) public races; //race array\n    mapping(uint=> Horse) public horseInfo;\n    event ChooseWinner(string _horseName );\n\n    function createRace() public {\n        uint raceId;\n        raceId= numOfRaces++;\n        for(uint i=1 ; i<6; i++){\n            races[raceId].horses.push(Horse(i, horseNames[i-1]));\n            horseInfo[i]= Horse(i, horseNames[i-1]);\n        }\n        races[raceId].paidOut= false;\n        races[raceId].expireTime= now + 5 minutes;\n        races[raceId].numOfBets=0;\n    }\n\n    function forceEvaluateRaceWithSpecificWinner(uint _raceIndex, uint _winningHorseIndex) public payable {\n        for(uint i = 0; i < races[_raceIndex].bets.length; i++){\n            Bet memory tempBet = races[_raceIndex].bets[i];\n            if(tempBet.horseNum == _winningHorseIndex) {\n                address payable tempAddress = tempBet.bettorAddr;\n                //tempAddress.send(tempBet.betAmount*races[_raceIndex].horses.length);\n                tempAddress.transfer(tempBet.betAmount*races[_raceIndex].horses.length);\n            }\n        }\n    }\n\n\n    //check if the bettor exist in the race already\n    //get the race based in raceId\n    //add bettor to the race and add horsesInfo to the race\n    //add amount\n    function createBet(uint _horseNumber, uint _raceId, uint _amount) public payable{\n        require(!checkBettorExists(msg.sender, _raceId),\n            \"Cannot bet on same horse more than once\");\n        require(msg.value >= _amount,\n            \"Bet amount must be equal or less than sent amount\");\n        require(races[_raceId].expireTime <= 0, \"Race has been expired\");\n\n        Race storage r= races[_raceId];\n        r.bets.push(Bet(msg.sender, false, _horseNumber, _amount));\n        r.numOfBets +=1;\n    }\n\n    //check if the bettor has already participated in betting for specific race\n    function checkBettorExists(address bettor, uint raceId) public view returns(bool){\n        Race storage r= races[raceId];\n        for(uint i = 0; i < r.bets.length; i++){\n            if(r.bets[i].bettorAddr == bettor) return true;\n        }\n        return false;\n    }\n\n    //gets valid races\n    function getValidRaceIds() public view returns (uint[] memory){\n        uint[] memory raceIds;\n\n        for (uint i = 0; i < numOfRaces; i++) {\n            Race storage race = races[i];\n            if(race.paidOut== false && race.expireTime <= 0){\n                raceIds[i] = race.raceId;\n            }\n\n            return raceIds;\n        }\n    }\n\n    //TODO call when time expires ****\n    function chooseWinner(uint raceId) public returns (uint){\n        //\n        Race storage race= races[raceId];\n        uint winningHorse;\n        //**** chooe winner\n        winningHorse= 3;// TODO need to add random number\n        emit ChooseWinner( horseInfo[winningHorse].horseName);\n        return winningHorse;\n    }\n\n    function payOutWinners(uint winningHorse, uint raceId ) public payable{\n        Race memory race= races[raceId];\n        for(uint i=0; i< race.numOfBets; i++){\n            Bet memory bet= race.bets[i];\n            if(bet.horseNum == winningHorse){\n                uint winningAmt = ((bet.betAmount * horseNames.length) - ((bet.betAmount * horseNames.length) /10));\n                bet.bettorAddr.transfer(winningAmt);\n                bet.rewarded= true;\n            }\n        }\n        race.paidOut= true;\n    }\n\n\n\n\n}\n",
  "sourcePath": "/home/kevin/IdeaProjects/CSC4980_horse_racing_dapp/contracts/HorsEther.sol",
  "compiler": {
    "name": "solc",
    "version": "0.5.0+commit.1d4f565a.Emscripten.clang"
  },
  "schemaVersion": "3.0.6",
  "updatedAt": "2019-04-16T02:49:10.617Z",
  "devdoc": {
    "methods": {}
  },
  "userdoc": {
    "methods": {}
  }
}